{
  "_format": "hh-sol-artifact-1",
  "contractName": "TransactionValidator",
  "sourceName": "contracts/TransactionValidator.sol",
  "abi": [
    {
      "anonymous": false,
      "inputs": [
        {
          "indexed": true,
          "internalType": "address",
          "name": "sender",
          "type": "address"
        },
        {
          "indexed": false,
          "internalType": "string",
          "name": "recipient",
          "type": "string"
        },
        {
          "indexed": false,
          "internalType": "uint256",
          "name": "amount",
          "type": "uint256"
        },
        {
          "indexed": false,
          "internalType": "bytes32",
          "name": "txHash",
          "type": "bytes32"
        }
      ],
      "name": "TransactionCreated",
      "type": "event"
    },
    {
      "inputs": [
        {
          "internalType": "string",
          "name": "recipient",
          "type": "string"
        },
        {
          "internalType": "uint256",
          "name": "amount",
          "type": "uint256"
        }
      ],
      "name": "createTransaction",
      "outputs": [
        {
          "internalType": "bytes32",
          "name": "",
          "type": "bytes32"
        }
      ],
      "stateMutability": "nonpayable",
      "type": "function"
    },
    {
      "inputs": [
        {
          "internalType": "bytes32",
          "name": "txHash",
          "type": "bytes32"
        }
      ],
      "name": "validateTransaction",
      "outputs": [
        {
          "internalType": "bool",
          "name": "",
          "type": "bool"
        }
      ],
      "stateMutability": "pure",
      "type": "function"
    }
  ],
  "bytecode": "0x6080604052348015600f57600080fd5b506106068061001f6000396000f3fe608060405234801561001057600080fd5b50600436106100365760003560e01c8063344829c81461003b578063e6d269ce1461006b575b600080fd5b6100556004803603810190610050919061017e565b61009b565b60405161006291906101c6565b60405180910390f35b6100856004803603810190610080919061035d565b6100a6565b60405161009291906103c8565b60405180910390f35b600060019050919050565b600080338484426040516020016100c094939291906104ef565b6040516020818303038152906040528051906020012090503373ffffffffffffffffffffffffffffffffffffffff167ff9844d06df01bf0e624e06515f895db828347bd67df3ffeb1eeb7822075c411085858460405161012293929190610592565b60405180910390a28091505092915050565b6000604051905090565b600080fd5b600080fd5b6000819050919050565b61015b81610148565b811461016657600080fd5b50565b60008135905061017881610152565b92915050565b6000602082840312156101945761019361013e565b5b60006101a284828501610169565b91505092915050565b60008115159050919050565b6101c0816101ab565b82525050565b60006020820190506101db60008301846101b7565b92915050565b600080fd5b600080fd5b6000601f19601f8301169050919050565b7f4e487b7100000000000000000000000000000000000000000000000000000000600052604160045260246000fd5b610234826101eb565b810181811067ffffffffffffffff82111715610253576102526101fc565b5b80604052505050565b6000610266610134565b9050610272828261022b565b919050565b600067ffffffffffffffff821115610292576102916101fc565b5b61029b826101eb565b9050602081019050919050565b82818337600083830152505050565b60006102ca6102c584610277565b61025c565b9050828152602081018484840111156102e6576102e56101e6565b5b6102f18482856102a8565b509392505050565b600082601f83011261030e5761030d6101e1565b5b813561031e8482602086016102b7565b91505092915050565b6000819050919050565b61033a81610327565b811461034557600080fd5b50565b60008135905061035781610331565b92915050565b600080604083850312156103745761037361013e565b5b600083013567ffffffffffffffff81111561039257610391610143565b5b61039e858286016102f9565b92505060206103af85828601610348565b9150509250929050565b6103c281610148565b82525050565b60006020820190506103dd60008301846103b9565b92915050565b600073ffffffffffffffffffffffffffffffffffffffff82169050919050565b600061040e826103e3565b9050919050565b60008160601b9050919050565b600061042d82610415565b9050919050565b600061043f82610422565b9050919050565b61045761045282610403565b610434565b82525050565b600081519050919050565b600081905092915050565b60005b83811015610491578082015181840152602081019050610476565b60008484015250505050565b60006104a88261045d565b6104b28185610468565b93506104c2818560208601610473565b80840191505092915050565b6000819050919050565b6104e96104e482610327565b6104ce565b82525050565b60006104fb8287610446565b60148201915061050b828661049d565b915061051782856104d8565b60208201915061052782846104d8565b60208201915081905095945050505050565b600082825260208201905092915050565b60006105558261045d565b61055f8185610539565b935061056f818560208601610473565b610578816101eb565b840191505092915050565b61058c81610327565b82525050565b600060608201905081810360008301526105ac818661054a565b90506105bb6020830185610583565b6105c860408301846103b9565b94935050505056fea26469706673582212200488f48ea684024df84fd738c2ea61da8ef548f7afb2261d0550a89ac64d1b6c64736f6c634300081c0033",
  "linkReferences": {},
  "deployedLinkReferences": {}
}